:020000040800F2
:1000000090040020C5000008810E00082D0C000897
:1000100000000000000000000000000000000000E0
:10002000000000000000000000000000391000087F
:100030000000000000000000C90E00083B1000088E
:10004000D700000800000000D7000008D700000813
:10005000D7000008D7000008D7000008D700000824
:1000600000000000D7000008D7000008D7000008F3
:10007000D7000008D7000008D700000800000000E3
:10008000D70000080000000000000000D7000008B2
:1000900000000000D7000008D7000008D7000008C3
:1000A00000000000D700000800000000D700000892
:1000B0000348854600F05EF800480047A912000892
:1000C000900400200448804704480047FEE7FEE70C
:1000D000FEE7FEE7FEE7FEE77D100008B10000083E
:1000E00030B50B46014600202022012409E00D46D0
:1000F000D5409D4205D31D469540491B2546954058
:1001000040191546521E002DF1DC30BD10B5202AD5
:1001100004DB0146203A9140002010BD914020238D
:100120009C1A0346E3401943904010BD10B5202AA5
:1001300004DB0846203AD040002110BD0B46D340D6
:10014000D0402024A21A91400843194610BDD2B2D3
:1001500001E00270401C491EFBD270470022F6E706
:1001600010B513460A4604461946FFF7F0FF20462D
:1001700010BD0000064C0125064E05E02046E36850
:1001800007C82B4398471034B442F7D3FFF794FFC6
:10019000781300089813000831B500F0B5F8009CFA
:1001A0000546601C00D0641C00F0AEF8401BA04265
:1001B000FAD338BDF8B500238DE001249C40A44655
:1001C00022407DD04C68022C01D0122C0CD1DC08CE
:1001D000A40027183C6A5D07ED0E0F26AE40B4431D
:1001E0000E69AE4026433E6205685E000324B440BB
:1001F0000F79A543BF07BF0FB7402F4307604D6876
:10020000012D05D0022D03D0112D01D0122D0ED1BC
:100210008568CF68A543B7402F4387604768654628
:10022000AF430D79ED06ED0F9D403D434560C56838
:10023000A5438C68B4402C43C4604C68E40049D5A5
:10024000284CA56901263543A561A4699D08344061
:100250000094254CAD002F19BC689D072E0F0F256B
:10026000B540AC430925ED06A84201D100250FE0B9
:100270001E4DA84201D101250AE01D4DA84201D121
:10028000022505E01B4DA84201D1032500E005250C
:10029000B5402543BD60184C25684E689543F6036C
:1002A00000D51543256065684E689543B60300D5B3
:1002B00015436560A5684E689543F60202D500E0D7
:1002C00008E01543A560E5684E689543B60200D581
:1002D0001543E5605B1C0A681446DC4000D06CE7FF
:1002E000F8BD00000010024000000140000400487A
:1002F00000080048000C004800040140002A01D01A
:100300008161704781627047014800687047000052
:100310000400002002480168491C01607047000089
:100320000400002010B50648016810221143016046
:10033000002000F007F800F017F8002010BD0000C2
:100340000020024010B5044600F0BCF87D21C90031
:10035000FFF7C6FE00F052FC00222146501E00F0BE
:1003600017F8002010BD000008B508488169012277
:1003700011438161816911400091C26901040A43FE
:10038000C261C0690840009008BD00000010024032
:1003900010B500F077FD10BDF8B5054644480E468F
:1003A0000068C007C00FB0420AD24148016849083E
:1003B0004900314301600068C007C00FB0425CD102
:1003C00028783C4C800705D56068F0218843A968EF
:1003D000084360602878C0073FD06868012813D0C0
:1003E0002168022813D08907002946DA6168890844
:1003F000890001436160FFF787FF696807460129AB
:100400000DD0022917D024E021688903ECE7890187
:10041000EAE7FFF779FFC11B2748814217D86068D8
:100420000007800F0128F4D117E0FFF76DFFC11B13
:10043000214881420BD860680007800F0228F4D160
:100440000BE0FFF761FFC11B1B48814201D903206C
:10045000F8BD60680007800FF3D115480168C9072F
:10046000C90FB1420BD90168490849003143016005
:100470000068C007C00FB04201D00120F8BD287845
:10048000400706D56068072109028843E9680843E8
:10049000606000F01DF86168084A0906090F515CA8
:1004A000C840074908600020FFF74CFF0020F8BD56
:1004B000002002400010024088130000681300086A
:1004C0000800002001480068704700000800002074
:1004D00010B513A30FCB88B06C460FC414A30FCB79
:1004E00004AC0FC416494A680C2013460340154853
:1004F000042B0FD0082B0DD193021B0F6C46E45C2C
:10050000C96A04AB0907090F595CD20304D5FFF788
:10051000E7FD604308B010BD0B486043FAE70000F8
:1005200002030405060708090A0B0C0D0E0F101034
:100530000102030405060708090A0B0C0D0E0F1033
:100540000010024000127A0000093D00FEB504468A
:100550000078D04DC00747D068680007800F012899
:1005600007D068680007800F022809D16868C003B7
:1005700006D52868800337D5606800287ED033E030
:10058000012062680004012A11D08100002A01D0F4
:10059000052A10D02A6882432A6028688843286088
:1005A0006068002814D0FFF7AFFE06460CE029680B
:1005B00001432960F4E72A680A432A60F7E7FFF756
:1005C000A3FE801B64286FD828688003F7D50BE052
:1005D000FFF79AFE064604E0FFF796FE801B6428AC
:1005E000F1D828688003F7D42078012680070028F6
:1005F0003BDA68680007800F07D068680007800F43
:10060000022809D16868C00306D42868800715D578
:10061000E068012832D111E0E0680028286815D090
:1006200030432860FFF770FE074604E0FFF76CFEDA
:10063000C01B0228C7D828688007F7D52868F8218A
:1006400088432169C900084328600EE04008400043
:100650002860FFF759FE074604E0FFF755FEC01B70
:100660000228B0D828688007F7D42078000724D55E
:10067000E0690028686A10D0304300E007E1686252
:10068000FFF742FE074604E0FFF73EFEC01B0228CC
:1006900099D8686A8007F7D50FE040084000686283
:1006A000FFF732FE074605E09CE0FFF72DFEC01B7A
:1006B000022888D8686A8007F7D420780427400782
:1006C00000285FDA00200190E869C00008D4E969D9
:1006D000B8060143E961E9690140012000910190F8
:1006E0006D480168C90511D4016882151143016084
:1006F000FFF70AFE009005E0FFF706FE0099401A9A
:1007000064286FD864480068C005F5D5A068012842
:100710000AD0002801D0052810D0286A40084000DF
:100720002862286AB84301E0286A30432862A0683A
:10073000002812D0FFF7E8FD00900AE0286A38434D
:100740002862F1E7FFF7E0FD0099411A5348814222
:1007500048D8286A8007F5D50DE0FFF7D5FD009051
:1007600006E0FFF7D1FD0099411A4C48814239D883
:10077000286A8007F5D40198012803D1E9690007A8
:100780008143E9612078C00635D5606901280CD025
:10079000401D686B23D038436863686B4008400095
:1007A0006863FFF7B1FD064622E0686B3843686373
:1007B000686B30436863FFF7A7FD064604E0FFF768
:1007C000A3FD801B02285BD8686B8007F7D5686B98
:1007D000F8218843A169C900084368630BE0B84366
:1007E0006863F4E74CE0FFF78FFD801B022847D8D1
:1007F000686B8007F7D4206A002846D0696809072B
:10080000890F022943D0012636060228286805D020
:10081000B0432860FFF778FD044633E0B04328601A
:10082000FFF772FD074604E0FFF76EFDC01B0228CC
:1008300026D828688001F7D4E86AE16A0009000137
:100840000843E862616AA06A084369683D221204AD
:10085000914308436860286830432860FFF754FDDF
:10086000044604E0FFF750FD001B022808D8286862
:100870008001F7D509E0FFF747FD001B022801D9E9
:100880000320FEBD28688001F5D40020FEBD0120B4
:10089000FEBD000000100240007000408813000000
:1008A000F8B5040007D0002625464035A662687FCB
:1008B000002802D005E00120F8BD2E77204600F088
:1008C0004BF802236B772068016840229143016056
:1008D0000721E0680902884201D9002201E00122D3
:1008E00012030F273F02B84202D0884200D0A6620E
:1008F000276B002F05D1884201D9236301E0012035
:100900002063A1686068636908432169194308434B
:100910000123A1695B0219400843E1690843216A88
:100920000843A16A084321680860616B606AA36993
:1009300008431B0C0427E1683B4019430843216826
:10094000104348602068C1697A029143C1612666FC
:10095000012068770020F8BD10B586B00446142148
:100960006846FFF7FBFB1149206888421CD11048FC
:10097000826981140A43826182690A400592426950
:1009800049010A434261406908400590E020009017
:10099000022001900021032003900291049109207C
:1009A0006946C006FFF706FC06B010BD00300140E6
:1009B00000100240FFB5044683B0012025464035B3
:1009C0000090287F00270E4601280FD001202877AD
:1009D000FFF79AFC0190687F616801280DD0CA1F5B
:1009E000FD3A08D1A168002905D102E0022007B034
:1009F000F0BD042801D00227F9E0002E7DD0059833
:100A00000028FBD006980028F8D0687F042801D081
:100A10000520687700202066059921640699E98001
:100A20000699A980A6630699E1870699A187E064E3
:100A300020650723E1681B02994202D8E888012853
:100A400006D920684168012212039143416005E004
:100A500020684268012109030A4342602068016856
:100A6000490603D40168402211430160E1686068CF
:100A7000994243D9002802D0E08F012836D130882E
:100A80002168B61CC860E08F401EE0872EE0009809
:100A900000280ED0E08F00280BD0206881688907DD
:100AA00007D53188B61CC160E08F401EE08700206A
:100AB0000090E88800280ED020688168C9070AD015
:100AC000C068059908800598801C0590E888401E3C
:100AD000E880012000900C98401C07D0FFF714FC20
:100AE00001460198091A0C9881426BD2E08F0028C8
:100AF000CDD1E8880028CAD16CE077E0002802D088
:100B0000E08F012860D1E08F012806D93088216864
:100B1000B61CC860E08F801E05E030782168761C26
:100B20000873E08F401EE0874EE00098002817D041
:100B3000E08F002814D020688168890710D5E18FE4
:100B4000012905D93188B61CC160E08F801E04E000
:100B50003178761C0173E08F401EE0870020009002
:100B6000E888002824D020688168C90720D0E98857
:100B7000012912D9C068059908800598801C059044
:100B8000E888801EE880E88801280FD8206841683E
:100B9000012212031143416008E0017B05980170B6
:100BA0000598401C0590E888401EE88001200090D0
:100BB0000C98401C08D0FFF7A7FB0199411A0C982C
:100BC000814201D3032712E0E08F0028ADD1E888ED
:100BD0000028AAD12046019A0C9900F076F9002845
:100BE00001D020202066206E002800D0012701209F
:100BF0006877002028773846F9E60000094910B5E3
:100C0000401E884201D9012010BD074C60610321BC
:100C1000081F00F037F90020A061072020610020A4
:100C200010BD0000FFFFFF0000E000E0FEE710B590
:100C3000042803D20A46092100F0A8F810BD0920B3
:100C4000C0064169082211434161704710B504286C
:100C500006D2072904D8491CD2B2C9B200F096F8CE
:100C600010BD10B5FFF7EBFF10BD10B5042806D27C
:100C70000F2900D90F210A460A2100F087F810BD7C
:100C80000021044BC0000A46C0184254491C0829E0
:100C9000FBDB70477000002010B5FFF7E2FF002477
:100CA000E0B2FFF7EDFFE0B2012100F04AF8E0B258
:100CB000002100F051F8E0B20021FFF7B8FFE0B2E8
:100CC0000121FFF7D2FFE0B2072100F02FF8E0B2D8
:100CD000FFF7D6FF641C042CE2DB10BD30B5074CD7
:100CE000C000002100190724651A42551D06120A8A
:100CF0002A431B0A491C0829F6DB30BD700000207E
:100D0000F8B5094F00250024E800C619325DE1B2AC
:100D1000E8B252B2FFF79AFF641C082CF6DB6D1C98
:100D2000042DF0DBF8BD00007000002010B5042891
:100D300006D2072900D907210A460B2100F026F820
:100D400010BD10B5042806D2012900D901210A4698
:100D50000C2100F01BF810BD10B5042806D20129A3
:100D600000D901210A460F2100F010F810BD000043
:100D700001B582B00020C0430090012301AA02A95E
:100D80000148FFF717FE0EBD0C000020F8B516460F
:100D90000F460446042823D20920C00641690909E8
:100DA00009014161254606E00020FFF7E1FF002030
:100DB000FFF7DEFF6D1C032DF6DB3846FFF7D8FF8B
:100DC0003046FFF7D5FF002506E00020FFF7D0FFF3
:100DD0000020FFF7CDFF6D1CA542F6DBFFF72FFFCC
:100DE000F8BD000010B586B014216846FFF7B6F9CB
:100DF00011484269012189050A43426142690A405A
:100E00000592426949110A43426140690924084038
:100E1000E4060590002218212046FFF76FFA1820FB
:100E20000090002101200291039101906946204623
:100E3000FFF7C0F906B010BD0010024010B50F4812
:100E40000D490160FF2105314160002107228160C9
:100E500012020161C2604161C1610122016252025C
:100E60004162826181620722C2620163082141639B
:100E7000FFF716FD10BD0000003001400C000020FF
:100E8000704700008307FF22DB0E9A408907090E96
:100E9000994000280BDA0007000F0838830808483B
:100EA0009B001B18D86990430843D861704783089A
:100EB00004489B001B18186890430843186070474B
:100EC00000ED00E000E400E07047F8B50F460B4687
:100ED00015460092032104460022C90200F01BF8C7
:100EE0002026002812D13B46002280212046009572
:100EF00000F05CF8002809D103213B46002249029A
:100F00002046009500F007F8002803D0206E3043FB
:100F100020660320F8BDF8B51D4617460E46044668
:100F20003DE0032149028E4205D1002F03D1017B10
:100F3000684601700078681C31D0002D05D0FFF79D
:100F4000E3F90699401AA84229D320684168E022B3
:100F5000914341606068C11FFD390CD10121A06837
:100F6000C903884202D04911884204D1206801682F
:100F70004022914301600120A16A4003814207D1D0
:100F800021680A6882430A6021680A6802430A608D
:100F9000012040346077002020770320F8BD2068CE
:100FA00081683140B942BCD10020F8BDF8B51D467A
:100FB00017460E46044633E0681C31D0002D05D09C
:100FC000FFF7A2F90699401AA84229D32068416880
:100FD000E022914341606068C11FFD390CD10121BD
:100FE000A068C903884202D04911884204D1206810
:100FF00001684022914301600120A16A40038142BF
:1010000007D121680A6882430A6021680A6802439E
:101010000A60012040346077002020770320F8BD6B
:10102000206881683046884304D00020B842C3D18C
:101030000020F8BD0120F9E7704710B5FFF76AF905
:1010400010BD30B591B030216846FFF787F8002415
:1010500001250D9400950C940E940F94684601950B
:101060000894FFF773FA07200C900E9400210D9559
:101070000F940CA8FFF790F911B030BD1348016828
:101080000122114301604168114A11404160016829
:10109000104A1140016001680122920491430160ED
:1010A00041683F22120491434160C16A0909090164
:1010B000C162016BFF22143291430163416B490805
:1010C0004900416300218160704700000010024028
:1010D0000CB8FF08FFFFF6FE02E008C8121F08C1A7
:1010E000002AFAD170477047002001E001C1121FA9
:1010F000002AFBD170470000F1B567488CB000684A
:101100000A210646FEF7ECFF0A214143711A044604
:10111000079164213046FEF7E3FF0A214143611A3B
:101120007D240546E400069121463046FEF7D8FFAF
:101130000A214143691A594D07460591294630460F
:10114000FEF7CEFF0A214843381A04900C98FEF7A8
:10115000C7FF0A210C9A4143511A064603916421A4
:101160001046FEF7BDFF0A214143711A029106465F
:1011700021460C98FEF7B4FF0A214143711A044638
:10118000019129460C98FEF7ABFF0A214843261A25
:1011900000240720079A0399914204D040490A1875
:1011A000203AD27F0A54069A0299914203D03C49D0
:1011B0000918CA790A72059A0199914203D03849EF
:1011C0000918CA7B0A7404998E4203D0344909185D
:1011D000CA7D0A76401EDDD107990398884210D057
:1011E000C1003048E2004018A0C8FF2000210B9247
:1011F000FEF78CFF284039400B9AFEF797FF2849ED
:10120000087006990298884210D0C1002548E20073
:101210004018A0C8FF2000210B92FEF777FF28405E
:1012200039400B9AFEF782FF1D4908720199059813
:10123000814210D01B48C9004018A0C8E200FF201E
:1012400000210B92FEF762FF284039400B9AFEF70F
:101250006DFF134908740498864210D01148F100BC
:101260004018A0C8E200FF2000210B92FEF74EFFBD
:10127000284039400B9AFEF759FF09490876FFF7D5
:101280003FFD7D20FEF788FF641C082C81D30249B6
:101290000C9808600DB0F0BD000000201027000081
:1012A00070000020181300080024FFF73BF8FFF738
:1012B000C8FEFFF797FDFFF7C1FDFFF7EDFC134DEB
:1012C000134E2A4633460320FFF708FD2A463346CD
:1012D0000220FFF703FD2A4633460120FFF7FEFCFC
:1012E0002A4633460020FFF7F9FCFFF709FDC82026
:1012F000FEF752FF0925ED0610262046641CFFF775
:10130000FBFE686970406861F7E70000003C6676A4
:101310006E66663C00000000003C66766E66663CC9
:101320000018181C1818187E003C6660300C067EE9
:10133000003C66603860663C00303834327E3030C5
:10134000007E063E6060663C003C66063E66663C8B
:10135000007E663030181818003C66663C66663CB5
:10136000003C66667C60663C0000000000000000F7
:101370000102030406070809981300080000002072
:101380000C000000D8100008A41300080C00002076
:1013900084040000E81000080000000000000000C5
:0413A00000127A00BD
:04000005080000B13E
:00000001FF
