:020000040800F2
:1000000090040020C5000008E50E0008E90B000878
:1000100000000000000000000000000000000000E0
:100020000000000000000000000000009D1000081B
:1000300000000000000000002D0F00089F100008C5
:10004000D700000800000000D7000008D700000813
:10005000D7000008D7000008D7000008D700000824
:1000600000000000D7000008D7000008D7000008F3
:10007000D7000008D7000008D700000800000000E3
:10008000D70000080000000000000000D7000008B2
:1000900000000000D7000008D7000008D7000008C3
:1000A00000000000D700000800000000D700000892
:1000B0000348854600F03CF80048004765110008F9
:1000C000900400200448804704480047FEE7FEE70C
:1000D000FEE7FEE7FEE7FEE7E9100008B1000008D2
:1000E00030B50B46014600202022012409E00D46D0
:1000F000D5409D4205D31D469540491B2546954058
:1001000040191546521E002DF1DC30BDD2B201E07F
:100110000270401C491EFBD270470022F6E710B562
:1001200013460A4604461946FFF7F0FF204610BD65
:10013000064C0125064E05E02046E36807C82B4320
:1001400098471034B442F7D3FFF7B6FFC412000843
:10015000E412000831B500F0B5F8009C0546601CBB
:1001600000D0641C00F0AEF8401BA042FAD338BDAA
:10017000F8B500238DE001249C40A44622407DD0A8
:100180004C68022C01D0122C0CD1DC08A4002718DA
:100190003C6A5D07ED0E0F26AE40B4430E69AE40DB
:1001A00026433E6205685E000324B4400F79A543F0
:1001B000BF07BF0FB7402F4307604D68012D05D023
:1001C000022D03D0112D01D0122D0ED18568CF68DC
:1001D000A543B7402F43876047686546AF430D7915
:1001E000ED06ED0F9D403D434560C568A5438C6815
:1001F000B4402C43C4604C68E40049D5284CA56940
:1002000001263543A561A4699D0834400094254C1E
:10021000AD002F19BC689D072E0F0F25B540AC43CC
:100220000925ED06A84201D100250FE01E4DA84288
:1002300001D101250AE01D4DA84201D1022505E0AA
:100240001B4DA84201D1032500E00525B5402543FB
:10025000BD60184C25684E689543F60300D51543DC
:10026000256065684E689543B60300D51543656003
:10027000A5684E689543F60202D500E008E01543F4
:10028000A560E5684E689543B60200D51543E56064
:100290005B1C0A681446DC4000D06CE7F8BD000027
:1002A000001002400000014000040048000800481F
:1002B000000C004800040140002A01D08161704711
:1002C000816270470148006870470000000000200C
:1002D00002480168491C01607047000000000020CE
:1002E00010B506480168102211430160002000F09B
:1002F00007F800F017F8002010BD000000200240B1
:1003000010B5044600F0BCF87D21C900FFF7E8FEF7
:1003100000F052FC00222146501E00F017F8002089
:1003200010BD000008B508488169012211438161B0
:10033000816911400091C26901040A43C261C06928
:100340000840009008BD00000010024010B500F009
:10035000CBFD10BDF8B5054644480E460068C00701
:10036000C00FB0420AD241480168490849003143F0
:1003700001600068C007C00FB0425CD128783C4CD7
:10038000800705D56068F0218843A968084360604C
:100390002878C0073FD06868012813D02168022858
:1003A00013D08907002946DA61688908890001436A
:1003B0006160FFF787FF6968074601290DD00229B0
:1003C00017D024E021688903ECE78901EAE7FFF709
:1003D00079FFC11B2748814217D860680007800F4A
:1003E0000128F4D117E0FFF76DFFC11B21488142BE
:1003F0000BD860680007800F0228F4D10BE0FFF7EC
:1004000061FFC11B1B48814201D90320F8BD606810
:100410000007800FF3D115480168C907C90FB14221
:100420000BD9016849084900314301600068C007E1
:10043000C00FB04201D00120F8BD2878400706D592
:100440006068072109028843E9680843606000F09A
:100450001DF86168084A0906090F515CC840074940
:1004600008600020FFF74CFF0020F8BD002002408C
:100470000010024088130000B4120008040000209D
:1004800001480068704700000400002010B513A365
:100490000FCB88B06C460FC414A30FCB04AC0FC4B1
:1004A00016494A680C20134603401548042B0FD008
:1004B000082B0DD193021B0F6C46E45CC96A04AB98
:1004C0000907090F595CD20304D5FFF709FE604301
:1004D00008B010BD0B486043FAE7000002030405B2
:1004E000060708090A0B0C0D0E0F10100102030479
:1004F00005060708090A0B0C0D0E0F10001002402C
:1005000000127A0000093D00FEB504460078D04D87
:10051000C00747D068680007800F012807D06868C7
:100520000007800F022809D16868C00306D5286833
:10053000800337D5606800287ED033E001206268F0
:100540000004012A11D08100002A01D0052A10D010
:100550002A6882432A6028688843286060680028E7
:1005600014D0FFF7AFFE06460CE02968014329606E
:10057000F4E72A680A432A60F7E7FFF7A3FE801B27
:1005800064286FD828688003F7D50BE0FFF79AFE40
:10059000064604E0FFF796FE801B6428F1D8286821
:1005A0008003F7D420780126800700283BDA6868AA
:1005B0000007800F07D068680007800F022809D164
:1005C0006868C00306D42868800715D5E06801284C
:1005D00032D111E0E0680028286815D03043286047
:1005E000FFF770FE074604E0FFF76CFEC01B022811
:1005F000C7D828688007F7D52868F821884321697B
:10060000C900084328600EE0400840002860FFF75A
:1006100059FE074604E0FFF755FEC01B0228B0D87C
:1006200028688007F7D42078000724D5E0690028DF
:10063000686A10D0304300E007E16862FFF742FECD
:10064000074604E0FFF73EFEC01B022899D8686AFF
:100650008007F7D50FE0400840006862FFF732FEE0
:10066000074605E09CE0FFF72DFEC01B022888D856
:10067000686A8007F7D420780427400700285FDAEB
:1006800000200190E869C00008D4E969B806014378
:10069000E961E96901400120009101906D4801681C
:1006A000C90511D40168821511430160FFF70AFEE4
:1006B000009005E0FFF706FE0099401A64286FD805
:1006C00064480068C005F5D5A06801280AD0002854
:1006D00001D0052810D0286A400840002862286A06
:1006E000B84301E0286A30432862A068002812D08D
:1006F000FFF7E8FD00900AE0286A38432862F1E736
:10070000FFF7E0FD0099411A5348814248D8286A12
:100710008007F5D50DE0FFF7D5FD009006E0FFF767
:10072000D1FD0099411A4C48814239D8286A800786
:10073000F5D40198012803D1E96900078143E961F3
:100740002078C00635D5606901280CD0401D686B43
:1007500023D038436863686B400840006863FFF744
:10076000B1FD064622E0686B38436863686B30432E
:100770006863FFF7A7FD064604E0FFF7A3FD801BB3
:1007800002285BD8686B8007F7D5686BF82188432F
:10079000A169C900084368630BE0B8436863F4E7E4
:1007A0004CE0FFF78FFD801B022847D8686B80075D
:1007B000F7D4206A002846D069680907890F022902
:1007C00043D0012636060228286805D0B0432860A9
:1007D000FFF778FD044633E0B0432860FFF772FD71
:1007E000074604E0FFF76EFDC01B022826D82868E4
:1007F0008001F7D4E86AE16A000900010843E86271
:10080000616AA06A084369683D2212049143084363
:100810006860286830432860FFF754FD044604E010
:10082000FFF750FD001B022808D828688001F7D583
:1008300009E0FFF747FD001B022801D90320FEBD98
:1008400028688001F5D40020FEBD0120FEBD000017
:10085000001002400070004088130000F8B504004A
:1008600007D0002625464035A662687F002802D0C2
:1008700005E00120F8BD2E77204600F04BF802235A
:100880006B77206801684022914301600721E0688E
:100890000902884201D9002201E0012212030F2738
:1008A0003F02B84202D0884200D0A662276B002FD8
:1008B00005D1884201D9236301E001202063A168AA
:1008C0006068636908432169194308430123A169EA
:1008D0005B0219400843E1690843216A0843A16AA1
:1008E000084321680860616B606AA36908431B0CB8
:1008F0000427E1683B4019430843216810434860DE
:100900002068C1697A029143C16126660120687737
:100910000020F8BD10B586B0044614216846FFF7E4
:10092000FCFB1149206888421CD11048826981145F
:100930000A43826182690A400592426949010A4379
:100940004261406908400590E0200090022001903B
:100950000021032003900291049109206946C006FA
:10096000FFF706FC06B010BD003001400010024049
:10097000FFB5044683B00120254640350090287F0E
:1009800000270E4601280FD001202877FFF79AFC98
:100990000190687F616801280DD0CA1FFD3A08D117
:1009A000A168002905D102E0022007B0F0BD0428AB
:1009B00001D00227F9E0002E7DD005980028FBD059
:1009C00006980028F8D0687F042801D005206877B1
:1009D00000202066059921640699E9800699A9807E
:1009E000A6630699E1870699A187E064206507233D
:1009F000E1681B02994202D8E888012806D92068DC
:100A00004168012212039143416005E02068426879
:100A1000012109030A43426020680168490603D4A2
:100A20000168402211430160E1686068994243D93E
:100A3000002802D0E08F012836D130882168B61C0A
:100A4000C860E08F401EE0872EE0009800280ED09E
:100A5000E08F00280BD020688168890707D531888E
:100A6000B61CC160E08F401EE08700200090E8883F
:100A700000280ED020688168C9070AD0C06805998F
:100A800008800598801C0590E888401EE8800120B9
:100A900000900C98401C07D0FFF714FC0146019809
:100AA000091A0C9881426BD2E08F0028CDD1E888DA
:100AB0000028CAD16CE077E0002802D0E08F01283E
:100AC00060D1E08F012806D930882168B61CC86043
:100AD000E08F801E05E030782168761C0873E08F77
:100AE000401EE0874EE00098002817D0E08F0028D5
:100AF00014D020688168890710D5E18F012905D9B4
:100B00003188B61CC160E08F801E04E03178761C0D
:100B10000173E08F401EE08700200090E8880028E5
:100B200024D020688168C90720D0E988012912D91A
:100B3000C068059908800598801C0590E888801E8B
:100B4000E880E88801280FD8206841680122120354
:100B50001143416008E0017B059801700598401C35
:100B60000590E888401EE880012000900C98401C09
:100B700008D0FFF7A7FB0199411A0C98814201D3D5
:100B8000032712E0E08F0028ADD1E8880028AAD121
:100B90002046019A0C9900F0CAF9002801D02020C3
:100BA0002066206E002800D00127012068770020F1
:100BB00028773846F9E60000094910B5401E8842FA
:100BC00001D9012010BD074C60610321081F00F00E
:100BD0008BF90020A06107202061002010BD0000DB
:100BE000FFFFFF0000E000E0FEE710B5042803D29D
:100BF0000A46092100F0FCF810BD0920C006416931
:100C0000082211434161704710B5042806D2072914
:100C100004D8491CD2B2C9B200F0EAF810BD10B530
:100C2000FFF7EBFF10BD10B5042806D20F2900D93D
:100C30000F210A460A2100F0DBF810BD0021044B09
:100C4000C0000A46C0184254491C0829FBDB704703
:100C50006C00002010B5FFF7E2FF0024E0B2FFF7C0
:100C6000EDFFE0B2012100F09EF8E0B2002100F0BB
:100C7000A5F8E0B20021FFF7B8FFE0B20121FFF7CD
:100C8000D2FFE0B2072100F083F8E0B2FFF7D6FF11
:100C9000641C042CE2DB10BD30B5134A002150184F
:100CA000037E047EDB0164080476047C057CE40199
:100CB0006D080574057C1D430574037A057ADB0114
:100CC0006D080572057A25430572545C555CE40194
:100CD0006D085554555C1D435554037E23430376DC
:100CE000491C0829DBDB30BD6C00002030B5134AFD
:100CF0000021505CC409505C400050545018037AE5
:100D0000057ADB096D000572057A25430572047CBE
:100D1000057CE4096D000574057C1D430574037EA4
:100D2000057EDB096D000576057E25430576505C62
:100D300018435054491C0829DBDB30BD6C000020EF
:100D400030B5074CC000002100190724651A425530
:100D50001D06120A2A431B0A491C0829F6DB30BD6E
:100D60006C000020F8B5094F00250024E800C619E2
:100D7000325DE1B2E8B252B2FFF746FF641C082CC4
:100D8000F6DB6D1C042DF0DBF8BD00006C000020CC
:100D900010B5042806D2072900D907210A460B21DD
:100DA00000F026F810BD10B5042806D2012900D99C
:100DB00001210A460C2100F01BF810BD10B50428D3
:100DC00006D2012900D901210A460F2100F010F8AE
:100DD00010BD000001B582B00020C0430090012387
:100DE00001AA02A90148FFF7C3FD0EBD08000020BB
:100DF000F8B516460F460446042823D20920C0063B
:100E00004169090909014161254606E00020FFF713
:100E1000E1FF0020FFF7DEFF6D1C032DF6DB3846F7
:100E2000FFF7D8FF3046FFF7D5FF002506E000208A
:100E3000FFF7D0FF0020FFF7CDFF6D1CA542F6DBCA
:100E4000FFF7DBFEF8BD000010B586B01421684640
:100E5000FFF763F911484269012189050A4342619C
:100E600042690A400592426949110A434261406958
:100E700009240840E4060590002208212046FFF7D7
:100E80001BFA08200090002101200291039101909B
:100E900069462046FFF76CF906B010BD001002400D
:100EA00010B50F480D490160FF2105314160002157
:100EB0000722816012020161C2604161C1610122A9
:100EC000016252024162826181620722C262016351
:100ED00008214163FFF7C2FC10BD00000030014053
:100EE00008000020704700008307FF22DB0E9A40B5
:100EF0008907090E994000280BDA0007000F08380F
:100F0000830808489B001B18D86990430843D861A0
:100F10007047830804489B001B18186890430843D7
:100F20001860704700ED00E000E400E07047F8B59D
:100F30000F460B4615460092032104460022C902C3
:100F400000F01BF82026002812D13B460022802109
:100F50002046009500F05CF8002809D103213B46AB
:100F6000002249022046009500F007F8002803D02F
:100F7000206E304320660320F8BDF8B51D461746A5
:100F80000E4604463DE0032149028E4205D1002F62
:100F900003D1017B684601700078681C31D0002DB8
:100FA00005D0FFF78FF90699401AA84229D3206887
:100FB0004168E022914341606068C11FFD390CD156
:100FC0000121A068C903884202D04911884204D196
:100FD000206801684022914301600120A16A40031A
:100FE000814207D121680A6882430A6021680A6841
:100FF00002430A60012040346077002020770320FC
:10100000F8BD206881683140B942BCD10020F8BDEC
:10101000F8B51D4617460E46044633E0681C31D02D
:10102000002D05D0FFF74EF90699401AA84229D3A2
:1010300020684168E022914341606068C11FFD392A
:101040000CD10121A068C903884202D0491188420D
:1010500004D1206801684022914301600120A16A07
:101060004003814207D121680A6882430A602168EF
:101070000A6802430A60012040346077002020772C
:101080000320F8BD206881683046884304D00020E2
:10109000B842C3D10020F8BD0120F9E7704710B570
:1010A000FFF716F910BD10B590B030216846FFF774
:1010B00034F8002402200F9400900D940120039036
:1010C0000E94102004900C9408946846FFF71CFAC4
:1010D00007200C900D940E9400210F940CA8FFF79C
:1010E00039F910B010BD0000134801680122114306
:1010F00001604168114A114041600168104A114085
:1011000001600168012292049143016041683F221D
:10111000120491434160C16A09090901C162016B6E
:10112000FF22143291430163416B49084900416336
:101130000021816070470000001002400CB8FF08D9
:10114000FFFFF6FE02E008C8121F08C1002AFAD10C
:1011500070477047002001E001C1121F002AFBD137
:1011600070470000FFF7BCF8FFF79DFFFFF76CFE2C
:10117000FFF796FEFFF76EFDFFF7F4FD3D4C3E4F87
:1011800022463B460020FFF7DBFD22463B4601207E
:10119000FFF7D6FD22463B460220FFF7D1FD22464F
:1011A0003B460320FFF7CCFDFFF7DCFD334E304616
:1011B000FEF7D0FF324A334B0020FFF7C1FDFFF7A7
:1011C000D1FD7D25ED002846FEF7C4FF22462E4BBB
:1011D0000120FFF7B5FDFFF7C5FD2846FEF7BAFF72
:1011E00022462A4B0220FFF7ABFDFFF7BBFD284646
:1011F000FEF7B0FF244B264A44330320FFF7A0FD3F
:10120000FFF7B0FD2846FEF7A5FF224A224B00203B
:10121000FFF796FD214A224B0120FFF791FD214A5D
:10122000214B0220FFF78CFD204A214B0320FFF7C2
:1012300087FDFFF797FD3046FEF78CFF0025012064
:10124000FFF72AFDFFF78EFD6420FEF783FF6D1C7C
:10125000182DF4DB00250120FFF748FDFFF782FD84
:101260006420FEF777FF6D1C182DF4DB3046FEF787
:1012700071FF85E7003C666038180018881300008D
:10128000003C66766E66663C3860663C300C067ED6
:10129000003C6666003C18181818183C0044EEFE26
:1012A000FE7C3810006666663C18181800783030EE
:1012B0003036361C0000000000000000010203046C
:1012C00006070809E41200080000002008000000DA
:1012D00044110008EC1200080800002088040000F7
:0C12E000541100080000000000127A0009
:04000005080000B13E
:00000001FF
